:020000040800F2
:1000000000800020E5250008950A0008970A0008EE
:10001000990A00089B0A00089D0A000800000000D9
:100020000000000000000000000000009F0A00081F
:10003000A10A000800000000A30A0008A50A0008A1
:100040003926000839260008392600083926000814
:100050003926000839260008392600083926000804
:1000600039260008392600083926000839260008F4
:1000700039260008392600083926000839260008E4
:10008000392600080000000039260008392600083B
:1000900039260008392600083926000839260008C4
:1000A00039260008392600083926000839260008B4
:1000B00039260008392600083926000839260008A4
:1000C0003926000839260008392600083926000894
:1000D0003926000839260008392600083926000884
:1000E0003926000839260008392600083926000874
:1000F00039260008392600083926000800000000CB
:100100000000000039260008000000003926000821
:1001100039260008000000003926000839260008AA
:100120003926000839260008392600083926000833
:1001300039260008000000000000000039260008F1
:1001400039260008392600080000000000000000E1
:10015000000000000000000000000000000000009F
:100160000000000000000000000000003926000828
:100170003926000800000000000000000000000018
:100180000000000039260008000000000000000008
:10019000000000000000000000000000000000005F
:1001A0000000000000000000392600083926000881
:1001B000392600083926000839260008000000000A
:1001C00000000000392600080000000000000000C8
:0801D000392600083926000859
:10020000044B05481B1A062B02D9044B03B11847AF
:10021000704700BF4304002040040020000000009D
:1002200005490648091A891001EBD171491002D01D
:10023000034B03B1184770474004002040040020DE
:100240000000000010B5064C237843B9FFF7D8FF33
:10025000044B13B10448AFF300800123237010BD99
:1002600040040020000000005026000808B5084B9C
:100270001BB108490848AFF300800848036813B968
:10028000BDE80840CCE7064B002BF9D09847F7E7CC
:100290000000000044040020502600084004002014
:1002A0000000000053B94AB9002908BF00281CBF4C
:1002B0004FF0FF314FF0FF3000F07AB9ADF1080C8C
:1002C0006DE904CE00F006F8DDF804E0DDE9022374
:1002D00004B070472DE9F0478C460D460446089E51
:1002E000002B51D18A4217466DD9B2FA82FEBEF177
:1002F000000F0BD0CEF1200C01FA0EF520FA0CFC09
:1003000002FA0EF74CEA050C00FA0EF44FEA174A0F
:10031000250CBCFBFAF81FFA87F90AFB18CC45EA52
:100320000C4508FB09F3AB420AD9ED1908F1FF327D
:1003300080F02381AB4240F22081A8F102083D44C5
:10034000ED1AA4B2B5FBFAF00AFB105544EA0544D5
:1003500000FB09F9A14509D9E41900F1FF3380F048
:100360000A81A14540F2078102383C44A4EB09040C
:1003700040EA08400021002E61D024FA0EF4002348
:1003800034607360BDE8F0878B4207D9002E54D0EB
:10039000002186E821000846BDE8F087B3FA83F122
:1003A000002940F08E80AB4202D3824200F2FA80F4
:1003B000841A65EB03050120AC46002E3FD086E889
:1003C0001010BDE8F08712B90127B7FBF2F7B7FAB2
:1003D00087FEBEF1000F34D1EB1B3A0C1FFA87FCED
:1003E0000121B3FBF2F8250C02FB183345EA034563
:1003F0000CFB08F3AB4207D9ED1908F1FF3002D22C
:10040000AB4200F2D1808046ED1AA3B2B5FBF2F008
:1004100002FB105543EA05440CFB00FCA44507D938
:10042000E41900F1FF3302D2A44500F2B880184667
:10043000A4EB0C0440EA08409DE731463046BDE895
:10044000F087CEF1200405FA0EF307FA0EF720FA32
:1004500004F83A0C25FA04F448EA0308B4FBF2F174
:100460004FEA184502FB11441FFA87FC45EA044590
:1004700001FB0CF3AB4200FA0EF409D9ED1901F1BE
:10048000FF3080F08A80AB4240F2878002393D44E1
:10049000EB1A1FFA88F5B3FBF2F002FB103345EAC2
:1004A000034500FB0CF3AB4207D9ED1900F1FF380F
:1004B0006FD2AB426DD902383D44EB1A40EA01419C
:1004C0008FE7C1F1200722FA07F88B4005FA01F403
:1004D00048EA030320FA07FE4FEA134CFD404EEAB8
:1004E000040EB5FBFCF94FEA1E440CFB19551FFA2C
:1004F00083F844EA054509FB08F4AC4202FA01F22C
:1005000000FA01FA08D9ED1809F1FF3043D2AC42E4
:1005100041D9A9F102091D442D1B1FFA8EFEB5FB1E
:10052000FCF00CFB10554EEA054400FB08F8A04512
:1005300007D9E41800F1FF3529D2A04527D90238A0
:100540001C4440EA0940A4EB0804A0FB02894C4586
:10055000C6464D4615D312D056B1BAEB0E0364EB26
:10056000050404FA07F7CB401F43CC4037607460A2
:100570000021BDE8F0871846F8E69046E0E6C2455F
:10058000EAD2B8EB020E69EB03050138E4E728462E
:10059000D7E7404691E78146BEE7014678E7023853
:1005A0003C4445E7084608E7A8F102083D442BE72C
:1005B000704700BF002301461A46184600F090B865
:1005C00038B50A4C0A4D641BA4100AD004F18043CC
:1005D000013B05EB8305013C55F804399847002C95
:1005E000F9D1BDE8384002F039B800BF74270008DF
:1005F0007027000870B50F4E0F4D761BB61018BF50
:10060000002405D0013455F8043B9847A642F9D19F
:100610000A4E0B4D761B02F01BF8B61018BF0024D3
:1006200006D0013455F8043B9847A642F9D170BD75
:1006300070BD00BF68270008682700087027000801
:100640006827000870B4860746D0541E002A41D09F
:10065000CAB2034602E014F1FF343BD303F8012B86
:100660009D07F8D1032C2ED9CDB245EA05250F2CD4
:1006700045EA054519D903F110022646103E0F2E12
:1006800042F8105C42F80C5C42F8085C42F8045CEA
:1006900002F11002F2D8A4F1100222F00F0204F0CD
:1006A0000F041032032C13440DD91E462246043A7F
:1006B000032A46F8045BFAD8221F22F00302043210
:1006C000134404F003042CB1C9B21C4403F8011B09
:1006D0009C42FBD170BC704714460346C2E700BF82
:1006E0002DE9F047254C2568D5F84841064688464F
:1006F00092469946C4B360681F2817DC431C76B144
:1007000004EB80050122C5F888A0D4F88811824046
:100710001143022EC4F88811C5F808911ED002308A
:10072000636044F820800020BDE8F087144B03B3D9
:100730004FF4C870AFF300800446D0B1D5F848310B
:10074000002780E88800C5F8484138460123C4F8EE
:100750008871C4F88C71002EE1D0D1E7D4F88C11E7
:100760000A43C4F88C21DAE705F5A674C5F84841B8
:10077000C1E74FF0FF30BDE8F08700BF78260008E2
:100780000000000030B589B000240394049405945F
:1007900006940794124BDA6C42F00402DA64DA6CC5
:1007A00002F004020192019ADA6C42F00202DA6469
:1007B000DB6C03F002030293029B0A4D22460621E2
:1007C000284600F013FB06230393012304930594AA
:1007D000069403A9284600F02FFA09B030BD00BFE7
:1007E000001002400004004872B6FEE708B52D482C
:1007F0000023037038224270012282704021C170B0
:1008000003716FF03D0141718271C37103724372D4
:100810008372C372037343738373C3730374437428
:100820008374C3740C22027543758375C375037694
:1008300043768376C376037743778377C37780F8ED
:10084000203080F8213080F8223080F8233080F882
:10085000243080F8253080F8263080F8273080F862
:10086000283080F8293080F82A3080F82B3001F0C9
:100870006EFD70B900210B4801F02FFE58B9002120
:10088000084801F06CFE40B9064801F0E1FD30B9BE
:1008900008BDFFF7A9FFFFF7A7FFFFF7A5FFFFF7C9
:1008A000A3FF00BF5C04002010B5A4B038220021D3
:1008B00016A8FFF7C7FE0024119412941394149401
:1008C0001594442221466846FFF7BCFE4FF40070A1
:1008D00000F092FA022316934FF480731993402389
:1008E0001A931D9416A800F041FBA8B90F23119389
:1008F00001231293002113911491159111A800F076
:10090000EFFD58B90123009300230193684600F0DE
:100910000FFF28B924B010BDFFF766FFFFF764FF93
:10092000FFF762FF08B500F0F7F8FFF7BDFFFFF72C
:1009300029FFFFF75BFF4FF4FA63C8222A492B48CF
:1009400001F03AFB08E001220221294800F04EFAAA
:100950004FF47A7000F002F9264C4FF47A730422B7
:100960002146224801F0BFFB2378303B032BF3D80C
:1009700001A252F823F000BF4709000889090008C6
:100980009D090008C509000800220221184800F04E
:100990002DFA4FF47A7000F0E1F8DDE7144C0022F4
:1009A0000221204600F022FA4FF47A7000F0D6F8C7
:1009B00001220221204600F019FA4FF47A7000F06B
:1009C000CDF8C9E70A4C00220221204600F00EFAB9
:1009D000642000F0C3F801220221204600F006FA4C
:1009E000642000F0BBF8B7E77C2600085C04002018
:1009F000000400483004002000B583B00B4B1A6E91
:100A000042F001021A661A6E02F001020092009A88
:100A10009A6D42F080529A659B6D03F0805301936A
:100A2000019B00F06FFA03B05DF804FB0010024078
:100A300000B589B0002303930493059306930793AD
:100A40000268124B9A4202D009B05DF804FB03F52C
:100A500058431A6E42F480421A661A6E02F48042BB
:100A60000192019ADA6C42F00402DA64DB6C03F062
:100A700004030293029B302303930223049307236E
:100A8000079303A9024800F0D7F8DDE700380140DA
:100A900000080048FEE7FEE7FEE7FEE7FEE77047D6
:100AA0007047704708B500F047F808BD054BD3F80C
:100AB000882042F47002C3F888204FF000629A60E8
:100AC000704700BF00ED00E0104B1B680BB9012020
:100AD000704710B504464FF47A70B0FBF3F30C4A3C
:100AE0001068B0FBF3F000F091F868B90F2C01D951
:100AF000012010BD002221464FF0FF3000F054F8D5
:100B0000044B1C60002010BD012010BD38040020E3
:100B1000340400203C04002010B5032000F032F81B
:100B20000020FFF7D1FF10B10124204610BD04467C
:100B3000FFF762FFF9E70000034A136803490968F9
:100B40000B441360704700BF0405002038040020E8
:100B5000014B1868704700BF0405002038B50446F3
:100B6000FFF7F6FF0546B4F1FF3F02D0044B1B68C8
:100B70001C44FFF7EDFF401B8442FAD838BD00BF8C
:100B800038040020074AD36823F4E0631B041B0CDD
:100B9000000200F4E060184340F0BF6040F4003011
:100BA000D060704700ED00E030B4164BDB68C3F353
:100BB0000223C3F10704042C28BF04241D1D062DA5
:100BC00017D9033B012505FA04F4013C2140994063
:100BD00005FA03F3013B1340194300280BDB09011D
:100BE000C9B200F1604000F5614080F8001330BCEC
:100BF00070470023E6E700F00F000901C9B2024B7D
:100C00001954F4E700ED00E014ED00E00138B0F114
:100C1000807F0AD2064B5860F021064A82F82310E2
:100C20000020986007221A6070470120704700BFBB
:100C300010E000E000ED00E0F0B583B0002394E0A8
:100C400085684FEA430E032707FA0EF725EA0705E2
:100C5000CE6806FA0EF635438560456825EA040439
:100C60004D68C5F300159D402C434460C6685F0085
:100C70000324BC40E44326408D68BD402E43C6603B
:100C80004D68022D00F08580122D00F082800568ED
:100C90002C404D6805F00305BD402C4304604C68B2
:100CA00014F0805F60D04D4C256E45F0010525663F
:100CB000246E04F001040194019C9D08AE1C484C74
:100CC00054F8264003F00306B6000F27B74024EA85
:100CD0000704B0F1904F75D0424FB84274D007F579
:100CE0008067B84272D007F58067B84270D007F5C8
:100CF0008067B8426ED007F58067B84260D006279B
:100D000007FA06F634430235354E46F82540364C90
:100D10002568D44305EA04064F6817F4803F01D0E4
:100D200042EA0506304D2E606D6804EA05064F68FC
:100D300017F4003F01D042EA05062B4D6E60AD6806
:100D400004EA05064F6817F4801F01D042EA050641
:100D5000254DAE60ED682C404E6816F4001F01D0A2
:100D600042EA0504204AD46001330A6832FA03F4E7
:100D700032D001249C402240F6D04D686E1E012ED8
:100D80007FF65EAF112D3FF45BAF122D7FF46EAF97
:100D900056E7DE08083650F8265003F0070E4FEAF3
:100DA0008E0E4FF00F0C0CFA0EFC25EA0C05D1F854
:100DB00010C00CFA0EFE45EA0E0540F8265066E714
:100DC00005279DE700279BE7012799E7022797E77B
:100DD000032795E7042793E703B0F0BD0010024016
:100DE0000000014000040048000401400AB981628B
:100DF0007047816170470000002836D13E4B1B6868
:100E000003F4C063B3F5806F08D03B4AD2F880305A
:100E100023F48073C2F8803000207047364AD2F83D
:100E2000803023F48073C2F88030136823F4C063E9
:100E300043F400731360314B1A68322303FB02F34F
:100E40002F4AA2FB03239B0C013300E0013B2A4AFB
:100E5000526912F4806F01D0002BF7D1264B5B69E9
:100E600013F4806F44D003207047B0F5007F08D0A2
:100E7000214A136823F4C06343F4806313600020A5
:100E800070471D4B1B6803F4C063B3F5806F08D037
:100E9000194AD2F8803043F48073C2F880300020C1
:100EA0007047154AD2F8803043F48073C2F880301E
:100EB000136823F4C06343F4007313600F4B1A6884
:100EC000322303FB02F30E4AA2FB03239B0C0133E4
:100ED00000E0013B084A526912F4806F01D0002BF8
:100EE000F7D1054B5B6913F4806F03D00320704783
:100EF000002070470020704700700040340400203C
:100F000083DE1B43024A936843F480439360704737
:100F100000700040124AD36803F00303D068C0F3A6
:100F200003100130032B11D00E4BB3FBF0F30C4A2E
:100F3000D068C0F3062000FB03F0094BDB68C3F365
:100F4000416301335B00B0FBF3F07047064BB3FB2A
:100F5000F0F3D068C0F3062000FB03F0EDE700BF1C
:100F6000001002400024F40000127A00002800F073
:100F7000608270B582B00446036813F0010F37D069
:100F8000B64A936803F00C03D26802F003020C2BFC
:100F900023D0082B23D06368B3F5803F4ED0B3F540
:100FA000A02F51D0AD4B1A6822F480321A601A6813
:100FB00022F480221A606368002B52D0FFF7C8FD2C
:100FC0000546A64B1B6813F4003F11D1FFF7C0FD87
:100FD000401B6428F5D9032032E2032AD9D19F4B64
:100FE0001B6813F4003F03D06368002B00F02382DA
:100FF000236813F0020F65D0984A936803F00C033E
:10100000D26802F003020C2B3AD0042B3AD0E368EA
:10101000002B74D0914A136843F480731360FFF778
:1010200097FD05468D4B1B6813F4806F42D1FFF787
:101030008FFD401B0228F5D9032001E2874A13687F
:1010400043F480331360B6E703F18043A3F53C33E8
:101050001A6842F480221A601A6842F480321A60D8
:10106000A9E7FFF775FD05467C4B1B6813F4003FAD
:10107000BED0FFF76DFD401B6428F5D90320DFE1EA
:10108000022AC2D1754B1B6813F4806F03D0E3684A
:10109000002B00F0D281714A536823F0FE4321698E
:1010A00043EA016353606E4B1868FFF70DFD48B1CA
:1010B0000120C5E1694A536823F0FE43216943EAF0
:1010C00001635360236813F0080F43D0636953B37F
:1010D000624AD2F8943043F00103C2F89430FFF72B
:1010E00037FD05465D4BD3F8943013F0020F31D134
:1010F000FFF72EFD401B0228F4D90320A0E1574A38
:10110000136823F480731360FFF722FD0546534BE9
:101110001B6813F4806FD5D0FFF71AFD401B02281F
:10112000F5D903208CE14D4AD2F8943023F0010325
:10113000C2F89430FFF70CFD0546484BD3F89430C5
:1011400013F0020F06D0FFF703FD401B0228F4D96D
:10115000032075E1236813F0040F00F086803F4BF5
:101160009B6D13F0805F39D10123002B38D03B4BAE
:101170009A6D42F080529A659B6D03F08053019303
:10118000019B0125374B1B6813F4807F2AD0A3688D
:10119000012B3BD0052B41D0304BD3F8902022F0CF
:1011A0000102C3F89020D3F8902022F00402C3F883
:1011B0009020A368002B3FD0FFF7CAFC0646274BC0
:1011C000D3F8903013F0020F4ED1FFF7C1FC801B13
:1011D00041F288339842F2D9032031E10023C4E779
:1011E0000025CFE71F4A136843F480731360FFF7AD
:1011F000AFFC06461B4B1B6813F4807FC7D1FFF77B
:10120000A7FC801B0228F5D9032019E1134AD2F864
:10121000903043F00103C2F89030CAE70F4BD3F887
:10122000902042F00402C3F89020D3F8902042F0BE
:101230000102C3F89020BCE7FFF78AFC0646074B83
:10124000D3F8903013F0020F0ED0FFF781FC801B13
:1012500041F288339842F2D90320F1E000100240B5
:101260003C04002000700040E5B9236813F0200F13
:1012700035D0A369E3B1764AD2F8983043F0010340
:10128000C2F89830FFF764FC0546714BD3F89830EC
:1012900013F0020F23D1FFF75BFC401B0228F4D9A7
:1012A0000320CDE06A4A936D23F080539365DCE719
:1012B000674AD2F8983023F00103C2F89830FFF75C
:1012C00047FC0546624BD3F8983013F0020F06D066
:1012D000FFF73EFC401B0228F4D90320B0E0E3698D
:1012E000002B00F0AC805A4A926802F00C020C2AE3
:1012F00069D0022B1DD0564B1A6822F080721A60FA
:10130000DA6822F00302DA60DA6822F0887222F4E6
:101310008032DA60FFF71CFC04464D4B1B6813F06B
:10132000007F4ED0FFF714FC001B0228F5D90320E4
:1013300086E0474A136823F080731360FFF708FCC8
:101340000546434B1B6813F0007F06D0FFF700FCF7
:10135000401B0228F5D9032072E03D4AD3683D497D
:101360001940236A606A013843EA0013A06A43EA1D
:101370000023206B4008013843EA4053606B40086B
:10138000013843EA4063E06A43EAC0630B43D36039
:10139000136843F080731360D36843F08073D360A5
:1013A000FFF7D6FB04462A4B1B6813F0007F06D1DB
:1013B000FFF7CEFB001B0228F5D9032040E00020F8
:1013C0003EE000203CE0012B3CD0214BDB6803F0E9
:1013D0000301226A914201D0012031E003F0F002C2
:1013E000616A0139B2EB011F01D0012028E003F44A
:1013F000FE42A16AB2EB012F01D0012020E003F0F0
:101400007842E16AB2EBC16F01D0012018E003F429
:10141000C001226B5208013AB1EB425F14D103F0D4
:10142000C063626B5208013AB3EB426F0ED00120E9
:1014300006E001207047012002E0012000E00020CA
:1014400002B070BD0120FBE70120F9E70020F7E7BB
:10145000001002400C809F011E4B9B6803F00C03A0
:10146000042B33D01B4B9B6803F00C03082B2FD0AD
:10147000184B9B6803F00C030C2B01D00020704725
:10148000144BDA6802F00302DB68C3F30313013381
:10149000032A11D11048B0FBF3F30E4AD068C0F311
:1014A000062000FB03F00B4BDB68C3F34163013301
:1014B0005B00B0FBF3F070470848B0FBF3F3054A5C
:1014C000D068C0F3062000FB03F0ECE70348704748
:1014D000014870470010024000127A000024F40016
:1014E000002800F0EA80F8B50446764B1B6803F04C
:1014F0000F038B420CD2734A136823F00F030B4384
:101500001360136803F00F03994201D00120F8BD66
:101510000D46236813F0010F61D06368032B15D0CB
:10152000022B33D0684B1B6813F4806F00F0C78028
:10153000FFF792FF654B984235D9634A936823F0D1
:10154000F00343F08003936080272DE05E4B1B681F
:1015500013F0007F01D10120F8BDFFF7DBFC5B4BEE
:1015600098421AD9584B9B6813F0F00F05D02368A6
:1015700013F0020F13D0A3689BB9534A936823F06A
:10158000F00343F08003936080270DE04E4B1B680F
:1015900013F4003FCCD10120F8BD002704E0002760
:1015A00002E0002700E00027474A936823F0030386
:1015B00061680B439360FFF7CBFA0646424B9B688A
:1015C00003F00C036268B3EB820F09D0FFF7C0FA97
:1015D000801B41F288339842F0D90320F8BD0027E0
:1015E000236813F0020F48D013F0040F04D0364ADA
:1015F000936843F4E0639360236813F0080F06D008
:10160000314A936823F47C5343F4E06393602E4A99
:10161000936823F0F003A1680B439360294B1B6888
:1016200003F00F039D4230D3236813F0040F06D05C
:10163000254A936823F4E063E1680B4393602368D1
:1016400013F0080F07D0204A936823F460532169F0
:1016500043EAC1039360FFF7FFFE1B4B9B68C3F394
:1016600003131B4AD35C03F01F03D840194B1860C7
:10167000194B1868FFF728FAF8BD002FCED0124A90
:10168000936823F0F0039360C8E70E4A136823F0D1
:101690000F032B431360FFF75BFA0646094B1B68E9
:1016A00003F00F039D42BFD0FFF752FA801B41F2B7
:1016B00088339842F2D90320F8BD012070470120F9
:1016C000F8BD00BF002002400010024000B4C40476
:1016D0002C270008340400203C040020014B18682B
:1016E000704700BF3404002008B5FFF7F7FF054B33
:1016F0009B68C3F30223044AD35C03F01F03D84062
:1017000008BD00BF001002403C27000808B5FFF7E5
:10171000E5FF054B9B68C3F3C223044AD35C03F087
:101720001F03D84008BD00BF001002403C2700083E
:10173000F0B583B00446036813F4002F69D0B34BAF
:101740009B6D13F0805F1ED1B04B9A6D42F08052BA
:101750009A659B6D03F080530193019B0126AC4A6F
:10176000136843F480731360FFF7F2F90546A84B42
:101770001B6813F4807F08D1FFF7EAF9401B0228A9
:10178000F5D9032502E00026E9E7002545BB9F4B7C
:10179000D3F8903013F4407315D0226C934212D0DA
:1017A0009A4AD2F8903023F44073D2F8901041F462
:1017B0008031C2F89010D2F8901021F48031C2F834
:1017C0009010C2F8903013F0010F10D145B98F4A34
:1017D000D2F8903023F44073216C0B43C2F8903060
:1017E000C6B18A4A936D23F08053936512E0FFF7E8
:1017F000AFF90746854BD3F8903013F0020FE5D1CF
:10180000FFF7A6F9C01B41F288339842F2D90325AD
:10181000DCE70025236813F0010F08D07B4AD2F8DB
:10182000883023F0030361680B43C2F888302368D3
:1018300013F0020F08D0754AD2F8883023F00C0359
:10184000A1680B43C2F88830236813F0040F08D056
:101850006E4AD2F8883023F03003E1680B43C2F8B7
:101860008830236813F0080F08D0684AD2F888300F
:1018700023F0C00321690B43C2F88830236813F0BA
:10188000200F08D0614AD2F8883023F440636169A0
:101890000B43C2F88830236813F0400F08D05B4A2E
:1018A000D2F8883023F44053A1690B43C2F8883042
:1018B000236813F0800F08D0544AD2F8883023F4FC
:1018C0004043E1690B43C2F88830236813F4807FFA
:1018D00008D04E4AD2F8883023F44033216A0B43B3
:1018E000C2F88830236813F4007F08D0474AD2F842
:1018F000883023F44023616A0B43C2F888302368A0
:1019000013F4806F0CD0414AD2F8883023F440138E
:10191000A16A0B43C2F88830A36AB3F5801F57D081
:10192000236813F4006F0CD0384AD2F8883023F4BF
:101930004003E16A0B43C2F88830E36AB3F5800FD5
:101940004BD0236813F4805F0CD0304AD2F8883033
:1019500023F04073216B0B43C2F88830236BB3F143
:10196000807F3FD0236813F4005F0CD0274AD2F861
:10197000883023F04063616B0B43C2F88830636B9F
:10198000B3F1006F33D0236813F4804F0CD01F4A9B
:10199000D2F8883023F04063A16B0B43C2F8883043
:1019A000A36BB3F1006F27D0236813F4004F0CD062
:1019B000164AD2F8883023F04053E16B0B43C2F84B
:1019C0008830E36BB3F1805F1BD0284603B0F0BDD5
:1019D000D36843F48013D360A2E7D36843F4801341
:1019E000D360AEE7D36843F48013D360BAE7D3681B
:1019F00043F48013D360C6E7D36843F48013D36005
:101A0000D2E7D36843F48033D360DEE700100240AE
:101A1000007000402DE9F8430446016883680269BC
:101A2000134342691343C2691343D0F8622013433E
:101A30000868A84A024013430B602268536823F4E5
:101A40004053E1680B435360A2692168A24B99425D
:101A500001D0236A1A438B6823F06E4323F430636A
:101A600013438B602268D36A23F00F03616A0B4330
:101A7000D3622368994A934223D0994A934234D03F
:101A8000984A93424AD0984A93425DD0924A9342F0
:101A900070D0102290498B4200F08F80E369B3F53B
:101AA000004F00F0D880082A00F23281DFE812F0FF
:101AB000240128010E0130012C01300130013001D8
:101AC000330102F55842D2F8882002F00302032ABB
:101AD00009D8DFE802F0020468060122DAE70422EE
:101AE000D8E70822D6E71022D4E702F5E632D2F88A
:101AF000882002F00C020C2A0ED8DFE802F0070D55
:101B00000D0D090D0D0D560D0D0D0B000022C1E739
:101B10000422BFE70822BDE71022BBE702F5E4324A
:101B2000D2F8882002F03002102A09D005D9202AE4
:101B30003DD0302A06D10822ACE71AB90022A9E725
:101B40000422A7E71022A5E702F5E232D2F88820A6
:101B500002F0C002402A09D005D9802A29D0C02A23
:101B600006D1082296E71AB9002293E7042291E7EA
:101B700010228FE702F5C832D2F8882002F44062C2
:101B8000B2F5806F0BD007D9B2F5006F13D0B2F564
:101B9000406F06D108227DE71AB900227AE70422B5
:101BA00078E7102276E7022274E7022272E7022227
:101BB00070E702226EE702226CE7082A11D8DFE8FC
:101BC00002F0081005100C101010130047480025F3
:101BD0000DE0FFF789FD002509E0FFF73DFC00253A
:101BE00005E00020012502E04FF400400025002818
:101BF00000F0A980626A3E4B33F81220B0FBF2F38A
:101C0000666806EB46018B42C0F0BA80B3EB063F34
:101C100000F2B880002792B200233946FEF742FB5B
:101C20004FEA012949EA10694FEA00287008324654
:101C30003B4618EB000649F1000730463946FEF7EF
:101C400031FB0246A0F540702A4B984200F29C807E
:101C50002368DA6077E0082A15D8DFE802F0080C7C
:101C600005141014141417002048002511E0FFF784
:101C70003BFD00250DE0FFF749FD002509E0FFF7DA
:101C8000EBFB002505E00020012502E04FF40040B9
:101C90000025002857D0626A154B33F81230B0FB8C
:101CA000F3F06268530803EB4003B3FBF2F39BB21B
:101CB000A3F110014FF6EF72914267D823F00F02A3
:101CC000C3F3420313432268D3603CE00748002576
:101CD00024E000BFF369FFCF0080004000380140DE
:101CE0000044004000480040004C00400024F40044
:101CF00044270008FFFC0F00FFF7F6FC00250DE06D
:101D0000FFF704FD002509E0FFF7A6FB002505E02D
:101D10000020012502E04FF40040002598B1626ADE
:101D20001C4B33F81230B0FBF3F0636800EB530048
:101D3000B0FBF3F080B2A0F110024FF6EF739A42BD
:101D400026D82368D8600023012284F8682084F80C
:101D5000693084F8662084F8673084F86A3084F843
:101D60006B3084F86C3084F86D3084F86E3084F811
:101D70006F3084F8703084F871302846BDE8F883FD
:101D80000125E0E70125DEE70125DCE70125DAE7AB
:101D90000125D8E744270008836A13F0010F06D015
:101DA0000268536823F40033C16A0B435360836AAB
:101DB00013F0020F06D00268536823F48033016BDE
:101DC0000B435360836A13F0040F06D00268536814
:101DD00023F48023416B0B435360836A13F0080F95
:101DE00006D00268536823F40043816B0B435360B1
:101DF000836A13F0100F06D00268936823F48053AF
:101E0000C16B0B439360836A13F0200F06D0026806
:101E1000936823F40053016C0B439360836A13F0BF
:101E2000400F0AD00268536823F48013416C0B43BF
:101E30005360436CB3F5801F0BD0836A13F0800F9F
:101E400006D00268536823F40023C16C0B4353602F
:101E500070470268536823F4C003816C0B435360DE
:101E6000EBE72DE9F04104460F4616469846069DDD
:101E70002368DB6937EA03030CBF01230023B34265
:101E800040F09780B5F1FF3FF2D0FEF761FEA0EB86
:101E9000080085425CD3002D5AD023681A6812F0DE
:101EA000040FE5D0DA6912F4006FE1D093F8202036
:101EB000002283F8202093F82110082183F82110B4
:101EC00093F8221083F8222093F8231083F823201C
:101ED00021680B6823F4D0730B6021688B6823F0B2
:101EE00001038B6094F87B30202384F87B3094F8D6
:101EF0007C1084F87C2094F87D1084F87D2094F880
:101F00007E1084F87E2094F87F1084F87F3094F857
:101F1000801084F8802094F8811084F8812094F84F
:101F2000821084F8822094F8831084F8833094F827
:101F3000843084F8842094F8853084F8852094F8DF
:101F4000863084F8862084F87A200320BDE8F0816A
:101F50002268136823F4D07313602268936823F017
:101F60000103936094F87B300023202284F87B20C7
:101F700094F87C1084F87C3094F87D1084F87D30DF
:101F800094F87E1084F87E3094F87F1084F87F20D7
:101F900094F8802084F8803094F8812084F881308F
:101FA00094F8822084F8823084F87A300320BDE8E7
:101FB000F0810020BDE8F0812DE9F04182B01E469D
:101FC000D0F87B30202B04D00223184602B0BDE8A5
:101FD000F08104460D46174600297ED0002A7ED0A7
:101FE00090F87A30012B01D10223EEE7012380F82B
:101FF0007A3090F88330002380F8833090F8842082
:1020000080F8843090F8852080F8853090F886201C
:1020100080F8863090F87B20212280F87B2090F891
:102020007C2080F87C3090F87D2080F87D3090F81E
:102030007E2080F87E30FEF78BFD8046A4F8547039
:10204000A4F85670A368B3F5805F04D0002700237E
:1020500084F87A3011E023690BB10027F7E72F46A7
:102060000025F4E7226837F8023BC3F308039362C4
:10207000B4F85630013BA4F85630B4F8563073B17A
:1020800000964346002280212046FFF7EAFE40BB2F
:10209000002DE7D0236815F8012B9A62E8E7009637
:1020A0004346002240212046FFF7DBFE034608B1ED
:1020B00003238AE794F87B200022202184F87B10F8
:1020C00094F87C1084F87C2094F87D1084F87D20AE
:1020D00094F87E1084F87E2077E7012375E70123CA
:1020E00073E7032371E72DE9F04383B01E46D0F870
:1020F0007F30202B03D0022003B0BDE8F0830446DC
:102100000D461746002900F0B980002A00F0B8807B
:1021100090F87A30012B01D10220EDE7012380F8FD
:102120007A3090F88330002380F8833090F8842050
:1021300080F8843090F8852080F8853090F88620EB
:1021400080F8863090F87F20222280F87F2090F857
:10215000802080F8803090F8812080F8813090F8DD
:10216000822080F88230FEF7F3FC8046A4F85C7091
:10217000A4F85E70A368B3F5805F0AD013BB226930
:10218000CAB94FF0FF3284F86020002284F8612041
:1021900020E022693AB94FF0FF3284F86020012232
:1021A00084F8612016E04FF0FF3284F860200022AE
:1021B00084F861200EE07F2284F86020002284F8F9
:1021C000612007E0B3F1805F0FD0002284F8602027
:1021D00084F86120B4F86070B3F5805F15D04FF0DB
:1021E0000009002384F87A3021E0226932B97F2285
:1021F00084F86020002284F86120EBE73F2284F815
:102200006020002284F86120E4E7236913B14FF0D5
:102210000009E6E7A9460025E3E723685B6A3B403F
:1022200029F8023BB4F85E30013BA4F85E30B4F804
:102230005E3083B100964346002220212046FFF7FE
:1022400010FEF8B9002DE8D023685A6AFBB213409B
:1022500005F8013BE6E794F87F300020202384F85E
:102260007F3094F8803084F8800094F8813084F8CE
:10227000810094F8823084F882003DE701203BE73A
:10228000012039E7032037E730B583B0044690F8E2
:102290008330002380F8833090F8842080F88430E5
:1022A00090F8852080F8853090F8862080F8863078
:1022B000FEF74EFC054623681B6813F0080F2AD171
:1022C00023681B6813F0040F33D194F87B3000208F
:1022D000202384F87B3094F87C2084F87C0094F8E8
:1022E0007D2084F87D0094F87E2084F87E0094F8A8
:1022F0007F2084F87F3094F8803084F8800094F850
:10230000813084F8810094F8823084F8820084F867
:102310007A0003B030BD6FF07E4300930346002285
:102320004FF400112046FFF79CFD0028C8D0032081
:10233000EFE76FF07E4300932B4600224FF48001BD
:102340002046FFF78EFD0028BFD00320E1E7F0B361
:1023500010B50446D0F87B3083B394F87B3000236B
:10236000242284F87B2094F87C2084F87C3094F834
:102370007D2084F87D3094F87E2084F87E302268B9
:10238000136823F0010313602046FFF743FB012885
:102390001FD0A36ABBB92268536823F490435360EB
:1023A0002268936823F02A0393602268136843F03D
:1023B000010313602046FFF767FF10BD80F87A30F5
:1023C000FEF736FBC9E72046FFF7E6FCE3E701200E
:1023D000704710BD10B485B002461C4B93E8030053
:1023E00004AC04E90300083393E803008DE803001C
:1023F000D2F86230FBB111688B68C3F3426388681E
:1024000004A901EB507010F8081CC90010F8100C5A
:1024100091FBF0F1A2F8681004A90B4413F8081C12
:10242000C90013F8103C91FBF3F3A2F8663005B035
:102430005DF8044B7047012182F8681082F869301A
:1024400082F8661082F86730F1E700BF682600085E
:1024500090F87A30012B3ED010B4012380F87A3006
:1024600090F87B300023242280F87B2090F87C2099
:1024700080F87C3090F87D2080F87D3090F87E20C8
:1024800080F87E3001680A680C6824F001040C6052
:1024900022F0005280F8623080F8633080F86430B7
:1024A00080F8653001680A6090F87B20202280F86F
:1024B0007B2090F87C2080F87C3090F87D2080F89C
:1024C0007D3090F87E2080F87E3080F87A30184693
:1024D0005DF8044B70470220704790F87A30012B6A
:1024E00001D10220704770B50446012380F87A308C
:1024F00090F87B300025242380F87B3090F87C30E6
:1025000080F87C5090F87D3080F87D5090F87E30D7
:1025100080F87E5003681E681A6822F001021A6073
:102520000268936823F0604319439160FFF752FFFC
:1025300023681E6094F87B30202384F87B3094F865
:102540007C3084F87C5094F87D3084F87D5094F889
:102550007E3084F87E5084F87A50284670BD90F81A
:102560007A30012B01D10220704770B50446012357
:1025700080F87A3090F87B300025242380F87B3077
:1025800090F87C3080F87C5090F87D3080F87D5059
:1025900090F87E3080F87E5003681E681A6822F03A
:1025A00001021A600268936823F060631943916026
:1025B000FFF710FF23681E6094F87B30202384F817
:1025C0007B3094F87C3084F87C5094F87D3084F82B
:1025D0007D5094F87E3084F87E5084F87A502846F6
:1025E00070BD000072B6DFF838D0002103E00D4B5B
:1025F0005B58435004310C480C4B42189A42F6D3B6
:102600000B4A02E0002342F8043B0A4B9A42F9D3FA
:10261000FEF74CFAFDF7EEFF62B6FEF783F970475E
:1026200000800020742700080000002040040020E3
:102630004004002008050020FEE70000024B13B113
:102640000248FDF7B7BF704700000000C105000851
:10265000F8B500BFF8BC08BC9E467047F8B500BF8F
:08266000F8BC08BC9E4670475F
:102668000101010307010000080402040801010137
:1026780008000020200A0D20302020204C454473FB
:102688002061726520696E204F464620737461741C
:10269800652009090909090909090909090909092F
:1026A800090A0D20312020204C45447320617265B1
:1026B80020696E204F4E20737461746520090909E2
:1026C8000909090909090909090909090A0D20322D
:1026D8002020204C4544732061726520696E205487
:1026E8006F67676C6520737461746520090909094F
:1026F80009090909090909090909090A0D203320E5
:1027080020204C45447320746F67676C6520696EA0
:1027180020646966666572656E7420737461746599
:102728000A2000000000000000000000010203046D
:102738000607080900000000010203040100020066
:102748000400060008000A000C00100020004000E9
:082758008000000143000000B5
:0827600074DBFF7F01000000A3
:082768003D2600086D02000887
:042770004502000816
:10277400080000200000000000000000F402002017
:102784005C030020C40300200000000000000000DF
:102794000000000000000000000000000000000035
:1027A4000000000000000000000000005C2700089A
:1027B4000000000000000000000000000000000015
:1027C4000000000000000000000000000000000005
:1027D40000000000000000000000000000000000F5
:1027E40000000000000000000000000000000000E5
:1027F40000000000000000000000000000000000D5
:1028040000000000000000000000000000000000C4
:1028140000000000000000000000000000000000B4
:1028240001000000000000000E33CDAB34126DE651
:10283400ECDE05000B0000000000000000000000BA
:102844000000000000000000000000000000000084
:102854000000000000000000000000000000000074
:102864000000000000000000000000000000000064
:102874000000000000000000000000000000000054
:102BA4000A0000000024F4000100000010000000EE
:04000005080025E5E5
:00000001FF
