:020000040800F2
:10000000000700207902000857150008ED140008C9
:10001000551500086F040008991A00080000000038
:100020000000000000000000000000005B15000858
:100030007104000800000000591500085D15000853
:10004000930200089302000893020008930200083C
:10005000930200089302000893020008930200082C
:10006000930200089302000893020008930200081C
:10007000930200089302000893020008930200080C
:100080009302000800000000930200089302000899
:1000900093020008930200089302000893020008EC
:1000A00093020008930200089302000893020008DC
:1000B00093020008930200089302000893020008CC
:1000C00093020008930200089302000893020008BC
:1000D00093020008930200089302000893020008AC
:1000E000930200089302000893020008930200089C
:1000F0009302000893020008930200080000000029
:1001000000000000930200080000000093020008B5
:100110009302000800000000930200089302000808
:10012000930200089302000893020008930200085B
:100130009302000800000000000000009302000885
:100140009302000893020008000000000000000075
:10015000000000000000000000000000000000009F
:1001600000000000000000000000000093020008F2
:1001700093020008000000000000000000000000E2
:1001800000000000930200080000000000000000D2
:10019000000000000000000000000000000000005F
:1001A0000000000000000000930200089302000815
:1001B0009302000893020008930200080000000068
:1001C0000000000093020008000000000000000092
:1001D000930200089302000800F002F800F03CF8D7
:1001E0000AA090E8000C82448344AAF10107DA4592
:1001F00001D100F031F8AFF2090EBAE80F0013F0A8
:10020000010F18BFFB1A43F001031847841A0000BE
:10021000A41A0000103A24BF78C878C1FAD852074F
:1002200024BF30C830C144BF04680C607047000070
:100230000023002400250026103A28BF78C1FBD8EF
:10024000520728BF30C148BF0B6070471FB501F08F
:10025000A9FC1FBD10B510BD00F0CFF81146FFF787
:10026000F5FF01F02BFC00F0EDF803B4FFF7F2FF0F
:1002700003BC00F0F5F80000094880470948004732
:10028000FEE7FEE7FEE7FEE7FEE7FEE7FEE7FEE746
:10029000FEE7FEE704480549054A064B70470000A3
:1002A000D5150008D9010008000100200007002032
:1002B000000300200003002053EA020C00F06980D4
:1002C0002DE9F04B4FF00006002B1FBFB3FA83F56A
:1002D00003FA05F424FA05F65E4012BF1643B2FA9B
:1002E00082F502FA05F4C5F120051EBF22FA05FCCD
:1002F00044EA0C04203556EA044C4FEA144418BF73
:10030000641C4FF000084FF00009904271EB030CA1
:1003100039D3002919BFB1FA81F701FA07F6B0FA0B
:1003200080F700FA07F6C7F120071EBF20FA07FC86
:1003300046EA0C062037B6FBF4FCA7EB0507103F96
:1003400007F01F0BCBF120060CFA0BFB2CFA06F67C
:1003500044BFB3460026202FA4BF5E464FF0000BDB
:100360005BEA060C08BF4FF0010B19EB0B09ABFB66
:10037000027C48EB0608C01B06FB02CC0BFB03CC3F
:1003800071EB0C01C1E70B46024641464846BDE809
:10039000F08B13B54FF000004FF00001AFF3008079
:1003A000BDE81C4070474FF0000200B5134694466C
:1003B0009646203922BFA0E80C50A0E80C50B1F1BD
:1003C0002001BFF4F7AF090728BFA0E80C5048BFD1
:1003D0000CC05DF804EB890028BF40F8042B08BF6F
:1003E000704748BF20F8022B11F0804F18BF00F86B
:1003F000012B7047704770477047754600F02CF826
:10040000AE4605006946534620F00700854618B001
:1004100020B5FFF73FFFBDE820404FF000064FF04A
:1004200000074FF000084FF0000B21F00701AC4629
:10043000ACE8C009ACE8C009ACE8C009ACE8C00948
:100440008D46704710B50446AFF300802046BDE8E6
:100450001040FFF70ABF000000487047A0000020CE
:1004600001491820ABBEFEE7260002007047FEE7F8
:100470007047000070B5044600F0F8F80546601CAF
:1004800002D004484068044400F0F0F8401BA04249
:10049000FAD370BD040000202DE9FC4FDFF8A0A1C5
:1004A000002301250AF1040B03244FF00F0C0BF17C
:1004B000040EBDE005FA03F632406FD04F68012FFD
:1004C00005D0022F03D0112F01D0122F17D1D0F851
:1004D00008905F0004FA07F829EA08090097D1F8A4
:1004E0000C8008FA07F848EA0908C0F8088047684D
:1004F000B7430E79C6F300169E403E434660C66879
:100500004FEA430804FA08F7BE4301978F6807FAD9
:1005100008F73743C7604E68022E01D0122E13D160
:10052000DE0800EB86060096366A5F07FF0E0CFABF
:1005300007F926EA0906D1F8109009FA07F949EAFD
:100540000609009EC6F820900668019FBE430F79F9
:1005500007F0030707FA08F7374307604E68F6000D
:1005600065D5384E376E47F001073766366E23F093
:10057000030706F001060096334E3E44B146B668C6
:100580009F074FEA17780CFA08F7BE43B0F1904F77
:1005900005D02E4FB84204D1012717E047E00027CD
:1005A00014E02B4FB84201D102270FE0294FB84287
:1005B00001D103270AE0284FB84201D1042705E002
:1005C000264FB84201D1052700E0062707FA08F7B1
:1005D0003743C9F80870DAF800605746D1F804804C
:1005E00096435FEAC83800D516433E60DBF80060EA
:1005F0005F46D1F8048096435FEA883800D51643F9
:100600003E60DEF800607746D1F8048096435FEAEA
:10061000C82800D516433E60094F0C373E68D1F814
:10062000048096435FEA882800D516433E605B1C31
:100630000A6832FA03F67FF43DAFBDE8FC8F000094
:100640000004014000100240000001400004004886
:1006500000080048000C0048001000480014004842
:100660000AB181617047816270470000014880686B
:10067000704700000400002002488168426811446D
:10068000816070470400002010B50024032000F0B2
:1006900065F8002000F008F808B1012401E000F03E
:1006A00025F8204610BD000070B50E4E054600240A
:1006B000706898B14FF47A71B1FBF0F00A4909689B
:1006C000B1FBF0F000F054FD40B9102D06D200222D
:1006D0002946501E00F022F8356000E00124204633
:1006E00070BD000004000020100000200A4882B005
:1006F000016E41F001010166016E01F001010091FE
:10070000816D41F080518165806D00F080500090D6
:1007100002B000F093B8000000100240F0B40E4B9D
:100720001B680C46C3F30223C3F10705042D00D94F
:100730000425191D072901D2002300E0DB1E012634
:1007400006FA05F1491E214099409E40761E16404A
:100750003143F0BC01F0A1B90CED00E0064900F016
:10076000070208684FF6FF03184040EA0220034AD8
:1007700010430860704700000CED00E00000FA052F
:100780002B492C4B0A6832214A432B4940B1B0F522
:10079000007F086829D020F4C06040F480602CE01D
:1007A0000868C0F34120022804D051F8800F20F4DB
:1007B000807022E0D1F8800020F48070C1F88000C1
:1007C000086820F4C06040F400700860B2FBF3F0E9
:1007D000401C00E0401E4A69520501D50028F9D1AD
:1007E000486940050AD503207047C0F3412002281C
:1007F00006D051F8800F40F48070086000207047E8
:10080000D1F8800040F48070C1F88000086820F4BE
:10081000C06040F400700860B2FBF3F0401C00E0E0
:10082000401E4A695205DBD50028F9D1D8E70000FF
:100830001000002040420F00007000400248816814
:1008400041F4804181607047007000402DE9F84319
:100850000446006800269D4D00035ED5A86D002764
:10086000C00008D4A86D40F08050A865A86D01278D
:1008700000F080500090DFF85892D9F8001041F451
:100880008071C9F80010FFF7F1FE804606E000BF56
:10089000FFF7ECFEA0EB080002282BD8D9F80000E7
:1008A000C005F5D5D5F8900010F4407014D0216C37
:1008B000814211D0D5F89000D5F8901020F4407006
:1008C00041F48031C5F89010D5F8901021F48031B2
:1008D000C5F89010C5F89000C00711D0FFF7C6FE0C
:1008E000804641F2883907E0FFF7C0FEA0EB08011F
:1008F000494501D903260BE0D5F890008007F3D5D0
:10090000D5F89000216C20F440700843C5F89000A1
:100910001FB1A86D20F08050A8652078C00707D0CF
:10092000D5F88800616820F003000843C5F8880006
:100930002078800707D5D5F88800A16820F00C0042
:100940000843C5F888002078400707D5D5F8880007
:10095000E16820F030000843C5F8880020780007DF
:1009600007D5D5F88800216920F0C0000843C5F8F4
:1009700088002078800607D5D5F88800616920F4C2
:1009800040600843C5F888002078400607D5D5F8B0
:100990008800A16920F440500843C5F888002078F9
:1009A000000607D5D5F88800E16920F440400843E7
:1009B000C5F888002088C00507D5D5F88800216AC9
:1009C00020F440300843C5F888002088800507D50A
:1009D000D5F88800616A20F440200843C5F88800F3
:1009E000208840050FD5D5F88800A16A20F4401072
:1009F0000843C5F88800A06AB0F5801F03D1E868F5
:100A000040F48010E860208800050FD5D5F88800F4
:100A1000E16A20F440000843C5F88800E06AB0F5B8
:100A2000800F03D1E86840F48010E8602088C0049B
:100A30000FD5D5F88800216B20F040700843C5F829
:100A40008800206BB0F1807F03D1E86840F480100B
:100A5000E86020884FF0006180040ED5D5F888004A
:100A6000626B20F040601043C5F88800606B8842DC
:100A700003D1E86840F48010E860208840040ED577
:100A8000D5F88800A26B20F040601043C5F88800BC
:100A9000A06B884203D1E86840F48010E8602088A9
:100AA00000040FD5D5F88800E16B20F040500843D2
:100AB000C5F88800E06BB0F1805F03D1E86840F4CE
:100AC0008030E8603046BDE8F88300000010024046
:100AD000007000402DE9F0470E4605004FF000077A
:100AE00025D0DFF8AC81D8F8000000F00F00B0424C
:100AF0000CD2D8F8001021F00F013143C8F80010D3
:100B0000D8F8000000F00F00B04210D12968614C05
:100B1000C80741F2883A5AD06868DFF87C91032808
:100B200008D0022820682DD0400500282CDB0120A9
:100B3000BDE8F08720688001F9D5E06800F0030285
:100B4000E068C0F30310401C032A19D0534A00BFC9
:100B5000B2FBF0F0E268C2F306225043E268C2F34F
:100B60004162521C5200B0FBF2F0484517D9A06810
:100B700010F0F00F0CD0880711D5A86840B10EE036
:100B8000474AE5E78003D0E700F0B6F8484506D9C4
:100B9000A06820F0F00040F08000A0608027A068EE
:100BA000696820F003000843A060FFF75FFD8146FD
:100BB00006E000BFFFF75AFDA0EB090151453AD806
:100BC000A068696800F00C00B0EB810FF2D12868D2
:100BD000810714D5400703D5A06840F4E060A06009
:100BE0002878000705D5A06820F4605040F4E06044
:100BF000A060A068A96820F0F000084304E0802FFE
:100C000003D1A06820F0F000A060D8F800104046A2
:100C100001F00F01B14216D9016821F00F013143F3
:100C20000160FFF723FD074607E000BFFFF71EFD49
:100C3000C11B514501D903207AE7D8F8000000F024
:100C40000F00B042F2D12878400705D5A068E968C6
:100C500020F4E0600843A0602878000706D5A0686B
:100C6000296920F4605040EAC100A06000F044F817
:100C7000A1680C4AC1F30311515C01F01F01C84087
:100C80000949086009480068BDE8F047FFF70CBD56
:100C9000002002400010024000B4C4040024F4000C
:100CA00000127A00C61B000810000020040000207B
:100CB0000548064900688968054AC1F30221515C6C
:100CC00001F01F01C84070471000002000100240D2
:100CD000D61B00080548064900688968054AC1F323
:100CE000C221515C01F01F01C84070471000002074
:100CF00000100240D61B0008184910B58868C0F3E0
:100D000081021748012A0BD08A684310C2F381027E
:100D1000022A06D08A68C2F38102032A03D0002087
:100D200010BD184610BDCA6802F00304CA68C2F3B9
:100D30000312521C032C02D0B0FBF2F001E0B3FB13
:100D4000F2F0CA68C968C2F306225043C1F3416198
:100D5000491C4900B0FBF1F010BD0000001002403A
:100D60000024F4002DE9F84304007AD02078FA4DED
:100D7000C00747D0A868E96800F00C0001F0030143
:100D80000C2802D0082817D001E0032914D060688D
:100D9000B0F5803F17D0B0F5A02F286817D020F409
:100DA00080302860286820F4802028606068E0B1E6
:100DB000FFF75CFC064614E02868800322D56068D3
:100DC0000028D2D01EE0286840F48030EDE740F4DF
:100DD00080202860F7E700BFFFF748FC801B6428ED
:100DE00070D828688003F7D50CE0FFF73FFC064673
:100DF00005E000BFFFF73AFC801B6428F0D82868A4
:100E00008003F7D4207880074CD5A868E96800F003
:100E10000C0001F003010C2802D004280DD001E0E1
:100E200002290AD0E068002828682BD040F480709E
:100E30002860FFF71BFC064619E02868400502D52C
:100E4000E068002891D06868217C20F0FE4040EAEC
:100E500001606860C1480068FFF726FC002800D1E7
:100E600020E076E1FFF702FC801B0228B8D8286852
:100E70004005F7D56868217C20F0FE4040EA01601B
:100E800068600FE020F480702860FFF7EFFB0646F3
:100E900005E000BFFFF7EAFB801B0228A0D8286806
:100EA0004005F7D42078000729D560690028D5F8D7
:100EB000940013D040F00100C5F89400FFF7D6FB72
:100EC000064606E090E000BFFFF7D0FB801B02283B
:100ED00086D8D5F894008007F6D510E020F0010000
:100EE000C5F89400FFF7C2FB064604E0FFF7BEFB1F
:100EF000801B022878D8D5F894008007F6D4207893
:100F0000400761D5A86D0026C00008D4A86D40F048
:100F10008050A865A86D012600F080500090904890
:100F20000168C90511D40168804641F480710160EF
:100F3000FFF79CFB074604E0FFF798FBC01B022865
:100F400052D8D8F80000C005F6D5A068012815D001
:100F50000528D5F8900016D020F00100C5F89000C3
:100F6000D5F8900020F00400C5F89000A06841F288
:100F70008838B8B1FFF77AFB07460EE0D5F8900045
:100F800040F00100F0E740F00400C5F89000F5E7FC
:100F9000FFF76CFBC11B414526D8D5F890008007B0
:100FA000F6D50CE0FFF762FB074604E0FFF75EFBB7
:100FB000C11B414518D8D5F890008007F6D41EB162
:100FC000A86D20F08050A8652078800629D5A069FA
:100FD0000028D5F8980013D040F00100C5F898001B
:100FE000FFF744FB064606E077E000BFFFF73EFB55
:100FF000801B022877D8D5F898008007F6D510E036
:1010000020F00100C5F89800FFF730FB064604E029
:10101000FFF72CFB801B022865D8D5F898008007C5
:10102000F6D4E069F0B3A968C1F38101032961D066
:101030000228286820F0807028600BD0E86820F033
:101040000300E860E86847490840E860FFF70EFBE6
:1010500004464BE0FFF70AFB064604E0FFF706FBF9
:10106000801B02283FD828688001F7D4F4E90801E2
:101070006FF00F0202EB01110843218A5204490864
:1010800002EB4151A26841EA02210843217D4FF061
:101090007E42490802EB41610843217B40EAC1607E
:1010A000E96800E062E0304A11400843E8602868DF
:1010B00040F080702860E86840F08070E860FFF7DA
:1010C000D5FA044605E000BFFFF7D0FA001B02285E
:1010D00009D828688001F7D548E004E0FFF7C6FA90
:1010E000001B022802D90320BDE8F883286880018C
:1010F000F4D43BE00128F7D0E868226A00F003014D
:10110000914226D1616A00F0F00209011039914242
:101110001FD1A26A00F4FE41B1EB022F19D194F85D
:101120002C2000F07841B1EBC26F12D1218E00F477
:10113000C00249084905A1F50011914209D194F86E
:10114000341000F0C06049084906A1F100718142E5
:101150000CD00120C8E7000000100240040000206D
:1011600000700040FFFFEEFE0C809F010020BBE7F7
:1011700010B5401EB0F1807F01D3012010BD4FF0AB
:10118000E02460610F21601700F087FC0020A0615F
:1011900007202061002010BD90F87C10012918D094
:1011A000012180F87C102421C0F8801050F8601BC9
:1011B0000A680B6823F001030B6022F00051002243
:1011C000426050F8603C19602021016202771046AD
:1011D00070470220704770B5044690F87C000128E3
:1011E0001DD0012084F87C002420C4F880002068F1
:1011F0000568026822F0010202602068826822F01D
:1012000060620A438260204600F0F2F920680560BF
:101210002020C4F88000002084F87C0070BD0220EB
:1012200070BD70B5044690F87C0001281DD00120E7
:1012300084F87C002420C4F88000206805680268D7
:1012400022F0010202602068826822F060420A43B4
:101250008260204600F0CCF9206805602020C4F8A8
:101260008000002084F87C0070BD022070BD10B5A5
:10127000040003D0D4F8800010B107E0012010BDB5
:10128000002084F87C00204600F026F82420C4F8D2
:1012900080002068016821F001010160204600F013
:1012A0006DFA0128EBD0A06A10B1204600F0D2F907
:1012B0002068416821F4904141602068816821F0F4
:1012C0002A0181602068016841F001010160204627
:1012D000BDE8104000F022BA10B586B004461421D3
:1012E0006846FFF760F81249206888421DD111480E
:1012F000016E41F480410166016E01F48041059167
:10130000C16C41F00401C164C06C694600F0040086
:101310000590302000900220019000200290039060
:10132000072004900448FFF7B7F806B010BD00008E
:101330000038014000100240000800482DE9F84F35
:101340000446D0F884009A4616460D4620286DD1F2
:10135000FDB1F6B194F87C00012867D0012084F833
:101360007C004FF00008C4F888802220C4F8840074
:101370002034FFF77BF9A6878146E68754F8180CDE
:101380004FF48053FF21203C984208D122691AB1C2
:101390001BE00120BDE8F88F40F2FF1115E07F222D
:1013A00088B1B0F1805F13D0A4F86080B4F86070A9
:1013B000984201D1206990B12E46002584F87C80A6
:1013C00007F0FF0825E0266936B9A4F86010EDE7BC
:1013D000216909B13F21F8E7A4F86020E6E700267B
:1013E000ECE74B46002220212046CDF800A000F07B
:1013F00001FB08B10320CDE72068406A96B100EAFE
:10140000080006F8010B00BFB4F85E00401EA4F807
:101410005E00B4F85E000028E3D12020C4F8840008
:101420000020B7E7384025F8020BEDE70220B1E7CE
:101430002DE9F8430446D0F880001F4616460D46B5
:10144000202851D1DDB1D6B194F87C0001284BD0D1
:10145000012084F87C004FF00008C4F88880212027
:10146000C4F880001834FFF701F9A6878146E687A3
:1014700054F8100C183CB0F5805F03D004E0012054
:10148000BDE8F883206920B12E46002584F87C80D1
:1014900010E00026FAE78021204600F0ABFAB8B948
:1014A000C6B116F8010B21688862B4F85600401ED8
:1014B000A4F85600B4F856004B464FF000020097CF
:1014C0000028E8D14FF04001204600F093FA30B1F7
:1014D0000320D5E735F8020BC0F30800E3E720202E
:1014E000C4F880000020CBE70220C9E7FEE7000037
:1014F000174810B5154901604FF4E13141600021F2
:1015000081600C22C160C0E904128161C161016285
:1015100041628162FFF7ABFE08B172B6FEE70021BF
:101520000B48FFF77EFE08B172B6FEE700210848BF
:10153000FFF751FE08B172B6FEE70548FFF72CFE33
:10154000002801D072B6FEE710BD0000003801404F
:1015500014000020FEE7FEE770477047FFF78CB8E5
:1015600030B5A5B0382111A8FEF71DFF14211FA822
:10157000FEF719FF44216846FEF715FF4FF400708F
:10158000FFF7FEF802201190C001149040200024C3
:101590001590189411A8FFF7E5FB08B172B6FEE7A5
:1015A00001250F20CDE920541F90229400211FA86F
:1015B0002394FFF78FFA08B172B6FEE7CDE9005425
:1015C0006846FFF743F9002801D072B6FEE725B060
:1015D00030BD00000548016841F470010160034915
:1015E0004FF00060803908607047000088ED00E02F
:1015F0003FB514A1D1E90021CDE9002113A2D2E920
:101600000012CDE90212416EB9B102689168926888
:10161000C1F34261520F1DF80240E50002ACA25C2A
:10162000B5FBF2F2A0F86A201DF80120615CD2003F
:10163000B2FBF1F1A0F868103FBD0121A0F86A10DB
:10164000F8E700000101010307010000080402049B
:101650000801010190F82810C90706D001684A68FE
:10166000C36A22F400321A434A6090F828108907AE
:1016700006D501684A68036B22F480321A434A6037
:1016800090F82810490706D501684A68436B22F490
:1016900080221A434A6090F82810090706D501688D
:1016A0004A68836B22F400421A434A6090F828107B
:1016B000C90606D501688A68C36B22F480521A43B2
:1016C0008A6090F82810890606D501688A68036C3C
:1016D00022F400521A438A6090F82810490611D566
:1016E00001684A68436C22F480121A434A60416CD4
:1016F000B1F5801F06D101684A68836C22F4C002EC
:101700001A434A6090F82810090606D501684A680D
:10171000C06C22F4002202434A607047F8B50026EC
:101720000446C0F88860FEF7A1FF054620680068FF
:101730006FF07E47000708D52B4600224FF40011BA
:101740002046009700F056F960B92068006840070D
:101750000AD52B4600224FF480012046009700F066
:1017600049F908B10320F8BD2020C4F88000C4F86E
:10177000840084F87C600020F8BD00002DE9F04171
:101780000446026880682169E369084361690025AD
:1017900019430843616EDFF830C2014310688B4B78
:1017A00018400843106020684168E26821F4405105
:1017B000114341602168A069614501D0226A10434C
:1017C0008A68834B1A4002438A602068C16A626A51
:1017D00021F00F011143C1627E4923687E488B428C
:1017E0000DD1D0F8880010F0030006D0012855D0A4
:1017F000022842D003283FD152E001203DE0774942
:101800008B420BD1D0F8880010F00C0035D00428A2
:1018100033D0082840D00C282ED141E070498B42AB
:101820000BD1D0F8880010F0300026D0102835D029
:10183000202831D030281FD132E06A498B420BD1A9
:10184000D0F8880010F0C00017D0402826D080289B
:1018500022D0C02810D123E063450DD1D0F88800F4
:1018600010F4406009D0B0F5806F17D0B0F5006F6C
:1018700012D0B0F5406F13D010205B495B4F0026AB
:101880004FF40042634539D160B1022813D00428D7
:101890000BD0082831D10DE00220EEE70420ECE760
:1018A0000820EAE7FFF704FA01E0FFF725FA010054
:1018B00001D17EE01146606A37F810206768B1FBFD
:1018C000F2F007EB470383426FD8B0EB073F6CD8C9
:1018D000002308461946FEF7EFFC090241EA1061B1
:1018E00002027808101871413A460023FEF7E4FC22
:1018F0003F4AA0F54071914259D956E0E3694FF64D
:10190000EF7893422DD109284FD2DFE800F0050887
:10191000114E0D4E4E4E1000FFF7CAF901E0FFF7D1
:10192000D9F9010004D144E0FFF7E6F9F9E71146DF
:10193000606A37F81000B1FBF0F04100606801EB1D
:101940005001B1FBF0F080B2A0F1100141452CD85C
:101950004FF6F0710140C0F3420001432068C160BE
:1019600027E0092821D2DFE800F0050811200D202A
:1019700020201000FFF79CF901E0FFF7ABF9010010
:1019800004D116E0FFF7B8F9F9E71146606A37F8B5
:101990001000B1FBF0F1606801EB5001B1FBF0F019
:1019A00080B2A0F11001414501D9012501E0216873
:1019B000C8600120A4F86A0024F8680F2846666011
:1019C000A660BDE8F081000000800040F369FFCF11
:1019D000FFF4FF11003801400010024000440040B5
:1019E00000480040004C00400024F400AE1B0008FA
:1019F000FFFC0F002DE9F0479A4617460E460446B5
:101A00004FF000094FF02008089D39E0681C37D0DE
:101A1000FEF72CFEA0EB0A00A84222D80DB32068E6
:101A2000016849072CD5C069C043000528D4216846
:101A30004FF4006008622068016821F4D0710160F1
:101A40002068816821F001018160C4F88080C4F8B9
:101A50008480C4F8888000BF84F87C900320BDE8AF
:101A6000F0872068016821F4D071016020688168E6
:101A700021F001018160C4F88080C4F88480EBE724
:101A80002068C06936EA000004D00020B842BDD00A
:101A90000020E4E70120F9E7FEE70907090E002826
:101AA00004DB00F1E02080F80014704700F00F0024
:101AB00000F1E02080F8141D7047000086B0FEF7AA
:101AC000E3FDFFF74DFD14216846FEF76CFC30483E
:101AD000C16C41F00401C164C16C01F004010591C5
:101AE000C16C41F00201C164C06C2A4D00F00200DB
:101AF0000590002206212846FEF7B2FD0620009040
:101B00000120019000200290039069462846FEF7CC
:101B1000C3FCFFF7EDFC4FF4FA63C8221E491F48CF
:101B2000FFF786FC1E4E4FF47A74234604221C49AC
:101B30001A48FFF703FC3078302816D0312816D029
:101B400032281BD03328F0D1002202212846FEF78C
:101B500087FD6420FEF78EFC012202212846FEF755
:101B60007FFD6420FEF786FCDFE7012200E0002213
:101B700002212846FEF774FD2046F3E700220221E9
:101B80002846FEF76DFD2046FEF774FCEDE70000E9
:101B90000010024000040048E01B00081400002070
:101BA000000000204FF04070E1EE100A7047010085
:101BB00002000400060008000A000C0010002000CB
:101BC0004000800000010000000000000000010251
:101BD00003040607080900000000010203040000D6
:101BE000200A0D20302020204C454473206172656E
:101BF00020696E204F464620737461746520090980
:101C0000090909090909090909090909090A0D2028
:101C1000312020204C4544732061726520696E207C
:101C20004F4E207374617465200909090909090977
:101C300009090909090909090A0D20322020204C47
:101C40004544732061726520696E20546F67676C2C
:101C50006520737461746520090909090909090976
:101C6000090909090909090A0D20332020204C45DA
:101C7000447320746F67676C6520696E20646966C1
:101C8000666572656E742073746174650A20000065
:101C9000B01C00080000002014000000140200081E
:101CA000C41C000814000020EC06000030020008EC
:101CB0000A00000010000000010000000000000009
:041CC0000024F40008
:04000005080001D915
:00000001FF
